S01200004D61737465725F706A312E737265633C
S11300000C9434000C9451000C9451000C94510045
S11300100C9451000C9451000C9451000C94510018
S11300200C9451000C9451000C9451000C94510008
S11300300C9451000C9451000C9451000C945100F8
S11300400C9451000C9451000C9451000C945100E8
S11300500C9451000C9451000C9451000C945100D8
S11300600C9451000C94510011241FBECFEFD8E022
S1130070DEBFCDBF11E0A0E0B1E0E2EDFEE002C0E2
S113008005900D92A031B107D9F721E0A0E1B1E0CC
S113009001C01D92AA32B207E1F70E9411020C942A
S11300A067070C9400000F931F93CF938B019C015F
S11300B0C42F87B18F7C87B9443079F018F441306C
S11300C031F023C0403191F04034C9F01EC0E9EB57
S11300D0F0E080818C7F80831EC0E9EBF0E08081BA
S11300E08D7F808380818160808315C0E9EBF0E09F
S11300F080818E7F80838081826080830CC0E9EB65
S1130100F0E080818360808306C0E9EBF0E08081C9
S11301108C7F8083C1E060E074E284EF90E0A90109
S113012098010E945B04CA01B901605171098109F7
S113013091094C2F50E09A01220F331F032E000C1B
S1130140440B550B0E945B042093B800ECEBF0E0E9
S1130150808184608083CF911F910F91089584EAF8
S11301608093BC008091BC008823E4F7089584E95F
S11301708093BC0008958093BB0084E88093BC0006
S11301808091BC008823E4F785B18F7E85B9809186
S1130190B900887F883131F0883231F0803429F415
S11301A081E0089581E0089581E00895DC016623EB
S11301B031F0ECEBF0E090819064908305C0ECEBBF
S11301C0F0E090819F7B9083ECEBF0E0908190686D
S11301D090839091BC009923E4F79091B900987FA3
S11301E0983511F0903529F48091BB008C9381E00F
S11301F00895892F089580FF04C09BB190619BB935
S113020003C09BB19F7E9BB981FF04C09BB19062E8
S11302109BB903C09BB19F7D9BB982FF04C09BB176
S113022090649BB903C09BB19F7B9BB983FF04C0BF
S11302309BB190689BB903C09BB19F779BB984FF26
S113024004C095B1916095B903C095B19E7F95B9ED
S113025085FF04C095B1926095B903C095B19D7FA7
S113026095B986FF04C095B1946095B903C095B162
S11302709B7F95B9882324F485B1886085B9089556
S113028085B1877F85B908959BB19B7F9BB90E94F7
S1130290FB008BB188608BB98FE79EE30197F1F780
S11302A000C000008BB1877F8BB908958AB18C6F31
S11302B08AB984B18F6084B915B81BB880E00E94F4
S11302C0FB002FEF89EF90E0215080409040E1F750
S11302D000C0000088E30E9444018FE891E0019788
S11302E0F1F700C000008CE00E9444018FE891E027
S11302F00197F1F700C0000086E00E9444018FE8F6
S113030091E00197F1F700C0000081E00E944401F0
S113031008959BB194609BB90E94FB008BB18860E7
S11303208BB98FE79EE30197F1F700C000008BB112
S1130330877F8BB908950F931F93CF93DF938C011D
S1130340C0E0D0E003C00E9489012196F801EC0FBF
S1130350FD1F80818111F7CFDF91CF911F910F9104
S11303600895613021F480580E9444010895623058
S113037019F480540E94440108950F931F93CF935E
S1130380DF938B01877090E00896880F880F880FA1
S11303900E944401C0E0D0E007C0F801EC0FFD1F4B
S11303A080810E9489012196C830D105B4F3DF9180
S11303B0CF911F910F9108950F931F93FC016381B7
S11303C06F70862F90E0A0E0B0E09C011127002719
S11303D0448150E060E070E0762F652F542F44276D
S11303E0D901C801842B952BA62BB72B2581BC01E1
S11303F0CD01622B0E94600320E030E048E453E426
S11304000E94EE0320E030E040E855E30E94EE0352
S113041020E030E048E452E40E94BD021F910F91B5
S11304200895CF93DF93CDB7DEB760970FB6F894F6
S1130430DEBF0FBECDBFF89441E060EA76E881E00C
S113044090E00E9453000E94560178940E94AF00ED
S113045080E70E94BB008093170181EE0E94BB00DD
S11304600E94B7008FE39CE90197F1F700C00000F8
S113047060E071E080E00E94BD0161E080E00E94E4
S1130480B10180E00E94890185B1806185B90E9433
S1130490AF0080E70E94BB0080931701813031F0E8
S11304A00E94B70085B18F7E85B9EECF8CEA0E9499
S11304B0BB0083E30E94BB0080E00E94BB000E945B
S11304C0B700188A0E94AF0081E70E94BB008093A6
S11304D0170161E0CE0140960E94D6000E94B70049
S11304E0888988237CF30E94AF0081E70E94BB00C7
S11304F08093170110E00DC0812F90E061E015306A
S113050008F060E08F5E9E4F0E94D60080931A012F
S11305101F5F163088F30E94B70081E191E00E94CA
S1130520DC01609325017093260180932701909349
S113053028010E942A036093290161E081E00E945E
S1130540B101809129011F928F9388E091E09F93DC
S11305508F938E010F5F1F4F1F930F930E947D0493
S1130560C8010E949B0185B18F7E85B90F900F90C1
S11305700F900F900F900F9087CF5058BB27AA274A
S11305800E94D5020C94B4030E94A60338F00E9482
S1130590AD0320F039F49F3F19F426F40C94A3031F
S11305A00EF4E095E7FB0C949D03E92F0E94C5032C
S11305B058F3BA17620773078407950720F079F494
S11305C0A6F50C94E7030EF4E0950B2EBA2FA02D9C
S11305D00B01B90190010C01CA01A0011124FF27EC
S11305E0591B99F0593F50F4503E68F11A16F040E7
S11305F0A22F232F342F4427585FF3CF46953795E6
S11306002795A795F0405395C9F77EF41F16BA0BAA
S1130610620B730B840BBAF09150A1F0FF0FBB1F58
S1130620661F771F881FC2F70EC0BA0F621F731FA1
S1130630841F48F4879577956795B795F7959E3FFE
S113064008F0B0CF9395880F08F09927EE0F97958F
S1130650879508950E9431036894B1110C94E803BE
S113066008950E94CD0388F09F5798F0B92F9927D9
S1130670B751B0F0E1F0660F771F881F991F1AF089
S1130680BA95C9F714C0B13091F00E94E703B1E004
S113069008950C94E703672F782F8827B85F39F003
S11306A0B93FCCF3869577956795B395D9F73EF422
S11306B090958095709561957F4F8F4F9F4F0895CA
S11306C0E89409C097FB3EF49095809570956195E8
S11306D07F4F8F4F9F4F9923A9F0F92F96E9BB279E
S11306E09395F695879577956795B795F111F8CF1A
S11306F0FAF4BB0F11F460FF1BC06F5F7F4F8F4F85
S11307009F4F16C0882311F096E911C0772321F07A
S11307109EE8872F762F05C0662371F096E8862F12
S113072070E060E02AF09A95660F771F881FDAF769
S1130730880F9695879597F9089597F99F6780E8AC
S113074070E060E008959FEF80EC089500240A941F
S11307501616170618060906089500240A94121698
S11307601306140605060895092E0394000C11F4CB
S1130770882352F0BB0F40F4BF2B11F460FF04C078
S11307806F5F7F4F8F4F9F4F089557FD9058440FD1
S1130790551F59F05F3F71F04795880F97FB991FDC
S11307A061F09F3F79F08795089512161306140699
S11307B0551FF2CF4695F1DF08C016161706180626
S11307C0991FF1CF86957105610508940895E89401
S11307D0BB2766277727CB0197F908950E94010468
S11307E00C94B4030E94A60338F00E94AD0320F0D9
S11307F0952311F00C949D030C94A30311240C94E1
S1130800E8030E94C50370F3959FC1F3950F50E070
S1130810551F629FF001729FBB27F00DB11D639FAE
S1130820AA27F00DB11DAA1F649F6627B00DA11D54
S1130830661F829F2227B00DA11D621F739FB00DFA
S1130840A11D621F839FA00D611D221F749F33276A
S1130850A00D611D231F849F600D211D822F762F03
S11308606A2F11249F5750409AF0F1F088234AF0E0
S1130870EE0FFF1FBB1F661F771F881F915050404C
S1130880A9F79E3F510580F00C949D030C94E80356
S11308905F3FE4F3983ED4F3869577956795B795D3
S11308A0F795E7959F5FC1F7FE2B880F911D9695ED
S11308B0879597F90895A1E21A2EAA1BBB1BFD0187
S11308C00DC0AA1FBB1FEE1FFF1FA217B307E4072B
S11308D0F50720F0A21BB30BE40BF50B661F771F83
S11308E0881F991F1A9469F7609570958095909563
S11308F09B01AC01BD01CF010895AEE0B0E0E3E897
S1130900F4E00C943E070D891E8986E08C831A83DB
S113091009838FEF9FE79E838D83AE01475E5F4F10
S11309206F89788DCE0101960E949F04EF81F8852E
S1130930E00FF11F10822E96E4E00C945A07ABE00E
S1130940B0E0E5EAF4E00C9430076C017B018A0125
S1130950FC0117821682838181FFCCC1CE010196EE
S11309603C01F6019381F70193FD859193FF8191F9
S11309707F01882309F4BAC1853239F493FD859146
S113098093FF81917F01853229F4B60190E00E94A2
S11309909606E7CF912C212C312CFFE1F315D8F0EA
S11309A08B3279F038F4803279F08332A1F4232D3C
S11309B020611DC08D3261F0803369F4232D2160E4
S11309C016C0832D8260382EE32DE4603E2E2AC0AB
S11309D0F32DF8601DC037FC2DC020ED280F2A3000
S11309E040F08E32B9F436FC81C1232D2064322EBE
S11309F019C036FE06C08AE0989E200D1124922E5E
S1130A0011C0EAE02E9E200D1124222EF32DF06257
S1130A103F2E08C08C3621F4832D8068382E02C006
S1130A20883641F4F70193FD859193FF81917F010D
S1130A308111B3CF982F9F7D9554933028F40C5F88
S1130A401F4F9FE399830DC0833631F0833771F0D4
S1130A50833509F059C021C0F801808189830E5F74
S1130A601F4F88248394912C530113C02801F2E072
S1130A704F0E511CF801A080B18036FE03C0692DD1
S1130A8070E002C06FEF7FEFC5010E948B064C013E
S1130A908201F32DFF773F2E16C0280122E0420E7B
S1130AA0511CF801A080B18036FE03C0692D70E0AE
S1130AB002C06FEF7FEFC5010E9480064C01F32D49
S1130AC0F0683F2E820133FC1BC0822D90E0881613
S1130AD09906B0F4B60180E290E00E9496062A944A
S1130AE0F4CFF50137FC859137FE81915F01B601A2
S1130AF090E00E94960621102A9421E0821A91081F
S1130B008114910471F7E8C0843611F0893641F5F7
S1130B10F80137FE07C060817181828193810C5F87
S1130B201F4F08C060817181072E000C880B990B40
S1130B300E5F1F4FF32DFF763F2E97FF09C0909550
S1130B408095709561957F4F8F4F9F4FF0683F2E32
S1130B502AE030E0A3010E94D206882E861845C000
S1130B60853731F4232D2F7EB22E2AE030E025C0C4
S1130B70932D997FB92E8F36C1F018F4883579F00A
S1130B80B5C0803719F0883721F0B0C0E92FE06193
S1130B90BE2EB4FE0DC0FB2DF460BF2E09C034FE82
S1130BA00AC0292F2660B22E06C028E030E005C016
S1130BB020E130E002C020E132E0F801B7FE07C0D6
S1130BC060817181828193810C5F1F4F06C06081B7
S1130BD0718180E090E00E5F1F4FA3010E94D20656
S1130BE0882E8618FB2DFF773F2E36FE0DC0232D51
S1130BF02E7FA22E891458F434FE0BC032FC09C097
S1130C00832D8E7EA82E05C0B82CA32C03C0B82C2F
S1130C1001C0B92CA4FE0FC0FE01E80DF11D8081B6
S1130C20803321F49A2D997EA92E09C0A2FE06C014
S1130C30B394B39404C08A2D867809F0B394A3FCCA
S1130C4011C0A0FE06C0B21488F4280C922C9B1884
S1130C500EC0B21460F4B60180E290E00E949606E1
S1130C60B394F7CFB21418F42B1802C0982C212C8B
S1130C70A4FE10C0B60180E390E00E949606A2FE96
S1130C8017C0A1FC03C088E790E002C088E590E0AB
S1130C90B6010CC08A2D867859F0A1FE02C08BE201
S1130CA001C080E2A7FC8DE2B60190E00E949606A6
S1130CB0891438F4B60180E390E00E9496069A9471
S1130CC0F7CF8A94F301E80DF11D8081B60190E01D
S1130CD00E9496068110F5CF222009F442CEB60177
S1130CE080E290E00E9496062A94F6CFF60186816F
S1130CF0978102C08FEF9FEF2B96E2E10C944C0793
S1130D00FC010590615070400110D8F780959095D2
S1130D108E0F9F1F0895FC016150704001900110D7
S1130D20D8F7809590958E0F9F1F08950F931F936A
S1130D30CF93DF93FB01238121FD03C08FEF9FEF4E
S1130D402CC022FF16C04681578124813581421769
S1130D50530744F4A081B1819D012F5F3F4F31833C
S1130D6020838C93268137812F5F3F4F37832683DF
S1130D7014C08B01EC01FB010084F185E02D099581
S1130D80892BE1F6D80116968D919C9117970196BF
S1130D9017969C938E931697CE01DF91CF911F9156
S1130DA00F910895FA01AA27283051F1203181F1D9
S1130DB0E8946F936E7F6E5F7F4F8F4F9F4FAF4F5F
S1130DC0B1E03ED0B4E03CD0670F781F891F9A1F72
S1130DD0A11D680F791F8A1F911DA11D6A0F711D26
S1130DE0811D911DA11D20D009F468943F912AE032
S1130DF0269F11243019305D3193DEF6CF0108951A
S1130E00462F4770405D4193B3E00FD0C9F7F6CF4A
S1130E10462F4F70405D4A3318F0495D31FD405212
S1130E20419302D0A9F7EACFB4E0A69597958795A8
S1130E3077956795BA95C9F7009761057105089587
S1130E409B01AC010A2E0694579547953795279533
S1130E50BA95C9F7620F731F841F951FA01D0895CB
S1130E602F923F924F925F926F927F928F929F92B6
S1130E70AF92BF92CF92DF92EF92FF920F931F93A4
S1130E80CF93DF93CDB7DEB7CA1BDB0B0FB6F89455
S1130E90DEBF0FBECDBF09942A88398848885F8495
S1130EA06E847D848C849B84AA84B984C884DF8006
S1130EB0EE80FD800C811B81AA81B981CE0FD11DEA
S1130EC00FB6F894DEBF0FBECDBFED010895F894C0
S1050ED0FFCF4E
S1130ED2040A0A0A0E0E0E04253264274320200057
S9030000FC
