S01200004D61737465725F706A312E737265633C
S11300000C9434000C9451000C9451000C94510045
S11300100C9451000C9451000C9451000C94510018
S11300200C9451000C9451000C9451000C94510008
S11300300C9451000C9451000C9451000C945100F8
S11300400C9451000C9451000C9451000C945100E8
S11300500C9451000C9451000C9451000C945100D8
S11300600C9451000C94510011241FBECFEFD8E022
S1130070DEBFCDBF11E0A0E0B1E0E4ECF0E102C0EE
S113008005900D92AE32B107D9F721E0AEE2B1E0AE
S113009001C01D92AE34B207E1F70E9439020C94FC
S11300A060080C9400008AB18E7F8AB98AB182609C
S11300B08AB91092C50087E68093C4001092C000EC
S11300C0E1ECF0E01082808188608083E2ECF0E073
S11300D010828081866080830895AC0120E007C08F
S11300E09091C00095FFFCCF3093C6002F5FFA01BA
S11300F0E20FF11D30813111F3CF08950F931F9357
S1130100CF938B019C01C42F87B18F7C87B9443076
S113011079F018F4413031F023C0403191F040348B
S1130120C9F01EC0E9EBF0E080818C7F80831EC0A3
S1130130E9EBF0E080818D7F808380818160808322
S113014015C0E9EBF0E080818E7F8083808182603E
S113015080830CC0E9EBF0E080818360808306C07B
S1130160E9EBF0E080818C7F8083C1E060E074E2A1
S113017084EF90E0A90198010E944505CA01B901E4
S113018060517109810991094C2F50E09A01220FA5
S1130190331F032E000C440B550B0E94450520937E
S11301A0B800ECEBF0E0808184608083CF911F91F4
S11301B00F91089584EA8093BC008091BC00882349
S11301C0E4F7089584E98093BC0008958093BB000C
S11301D084E88093BC008091BC008823E4F780917C
S11301E0B900887F883131F0883231F0803429F4C5
S11301F081E0089581E0089581E00895DC0166239B
S113020031F0ECEBF0E090819064908305C0ECEB6E
S1130210F0E090819F7B9083ECEBF0E0908190681C
S113022090839091BC009923E4F79091B900987F52
S1130230983511F0903529F48091BB008C9381E0BE
S11302400895892F089580FF04C09BB190619BB9E4
S113025003C09BB19F7E9BB981FF04C09BB1906298
S11302609BB903C09BB19F7D9BB982FF04C09BB126
S113027090649BB903C09BB19F7B9BB983FF04C06F
S11302809BB190689BB903C09BB19F779BB984FFD6
S113029004C095B1916095B903C095B19E7F95B99D
S11302A085FF04C095B1926095B903C095B19D7F57
S11302B095B986FF04C095B1946095B903C095B112
S11302C09B7F95B9882324F485B1886085B9089506
S11302D085B1877F85B908959BB19B7F9BB90E94A7
S11302E023018BB188608BB98FE79EE30197F1F707
S11302F000C000008BB1877F8BB908958AB18C6FE1
S11303008AB984B18F6084B915B81BB880E00E94A3
S113031023012FEF89EF90E0215080409040E1F7D6
S113032000C0000088E30E946C018FE891E001970F
S1130330F1F700C000008CE00E946C018FE891E0AE
S11303400197F1F700C0000086E00E946C018FE87D
S113035091E00197F1F700C0000081E00E946C0178
S113036008959BB194609BB90E9423018BB188606E
S11303708BB98FE79EE30197F1F700C000008BB1C2
S1130380877F8BB908950F931F93CF93DF938C01CD
S1130390C0E0D0E003C00E94B1012196F801EC0F47
S11303A0FD1F80818111F7CFDF91CF911F910F91B4
S11303B00895613021F480580E946C0108956230E0
S11303C019F480540E946C0108950F931F93CF93E6
S11303D0DF938B01877090E00896880F880F880F51
S11303E00E946C01C0E0D0E007C0F801EC0FFD1FD3
S11303F080810E94B1012196C830D105B4F3DF9108
S1130400CF911F910F9108950F931F93FC01638166
S11304106F70862F90E0A0E0B0E09C0111270027C8
S1130420448150E060E070E0762F652F542F44271C
S1130430D901C801842B952BA62BB72B2581BC0190
S1130440CD01622B0E944A0420E030E048E453E4EA
S11304500E94D80420E030E040E855E30E94D8042C
S113046020E030E048E452E40E94A7031F910F917A
S11304700895CF93DF93CDB7DEB7EA970FB6F8941C
S1130480DEBF0FBECDBFF89441E060EA76E881E0BC
S113049090E00E947E000E947E010E9453007894A6
S11304A00E94DA0080E70E94E6008093390181EE21
S11304B00E94E6000E94E2008FE39CE90197F1F7B5
S11304C000C0000060E071E080E00E94E50161E0AE
S11304D080E00E94D90180E00E94B1010E94DA000C
S11304E080E70E94E60080933901813019F00E9470
S11304F0E200F4CF8CEA0E94E60083E30E94E60067
S113050080E00E94E6000E94E2001AAE0E94DA0037
S113051081E70E94E6008093390161E0CE01CA962A
S11305200E94FE000E94E2008AAD88237CF30E94B0
S1130530DA0081E70E94E6008093390110E00DC0E3
S1130540812F90E061E0153008F060E08D5C9E4FF3
S11305500E94FE0080933C011F5F163088F30E94C6
S1130560E20083E391E00E940402609349017093E6
S11305704A0180934B0190934C010E9414046093B0
S11305804D016A3120F085B1806185B903C085B120
S11305908F7E85B961E081E00E94D90180914D018F
S11305A01F928F9388E091E09F938F938E010F5D4C
S11305B01F4F1F930F930E947605C8010E94C30129
S11305C00E94DA0081E20E94E600809339010F90D4
S11305D00F900F900F900F900F9010E00CC0812F90
S11305E090E061E0111160E0835C9E4F0E94FE0088
S11305F0809331011F5F123090F30E94E200EDE31B
S1130600F1E0808190E0982F88272181822B9093BC
S1130610300180932F0162E080E00E94D90180E1E3
S113062091E00E94C30162E081E00E94D9018091BF
S113063030018F9380912F018F9383E191E09F93F9
S11306408F938E010F5E1F4F1F930F930E947605A9
S1130650C8010E94C3019FEF2AE683E09150204025
S11306608040E1F700C000000E94DA0081E40E94AB
S1130670E600809339010F900F900F900F900F9028
S11306800F90813019F00E94E2000DC084E880933D
S1130690BC008091BC008823E4F78091BB00809368
S11306A02E010E94E20062E085E00E94D9018BE104
S11306B091E00E94C30162E087E00E94D901809129
S11306C02E011F928F938EE191E09F938F938E0161
S11306D00F5F1F4F1F930F930E947605C8010E945E
S11306E0C30140912F01509130019A01369527950D
S11306F036952795ABE7B4E10E94670596958795F3
S113070064E6689F9001699F300D1124CA01821B21
S1130710930B20912E011F922F9320914D011F9234
S11307202F9399279F938F9387E291E09F938F93C1
S1130730015D1F4F1F930F930E947605C8010E940D
S11307406D000FB6F894DEBF0FBECDBFC7CE5058B4
S1130750BB27AA270E94BF030C949E040E94900406
S113076038F00E94970420F039F49F3F19F426F4DE
S11307700C948D040EF4E095E7FB0C948704E92FA8
S11307800E94AF0458F3BA176207730784079507EA
S113079020F079F4A6F50C94D1040EF4E0950B2E18
S11307A0BA2FA02D0B01B90190010C01CA01A001BF
S11307B01124FF27591B99F0593F50F4503E68F11A
S11307C01A16F040A22F232F342F4427585FF3CF5B
S11307D0469537952795A795F0405395C9F77EF42C
S11307E01F16BA0B620B730B840BBAF09150A1F075
S11307F0FF0FBB1F661F771F881FC2F70EC0BA0FFB
S1130800621F731F841F48F4879577956795B79582
S1130810F7959E3F08F0B0CF9395880F08F099277D
S1130820EE0F9795879508950E941B046894B11163
S11308300C94D20408950E94B70488F09F5798F04E
S1130840B92F9927B751B0F0E1F0660F771F881FD1
S1130850991F1AF0BA95C9F714C0B13091F00E94EB
S1130860D104B1E008950C94D104672F782F882720
S1130870B85F39F0B93FCCF3869577956795B39512
S1130880D9F73EF490958095709561957F4F8F4F81
S11308909F4F0895E89409C097FB3EF49095809586
S11308A0709561957F4F8F4F9F4F9923A9F0F92F32
S11308B096E9BB279395F695879577956795B795B0
S11308C0F111F8CFFAF4BB0F11F460FF1BC06F5F96
S11308D07F4F8F4F9F4F16C0882311F096E911C0A8
S11308E0772321F09EE8872F762F05C0662371F0C9
S11308F096E8862F70E060E02AF09A95660F771FDD
S1130900881FDAF7880F9695879597F9089597F9D0
S11309109F6780E870E060E008959FEF80EC0895A1
S113092000240A94161617061806090608950024CA
S11309300A9412161306140605060895092E039444
S1130940000C11F4882352F0BB0F40F4BF2B11F4B8
S113095060FF04C06F5F7F4F8F4F9F4F089557FD17
S11309609058440F551F59F05F3F71F04795880F19
S113097097FB991F61F09F3F79F0879508951216B0
S113098013061406551FF2CF4695F1DF08C016165C
S113099017061806991FF1CF86957105610508940D
S11309A00895E894BB2766277727CB0197F9089524
S11309B00E94EB040C949E040E94900438F00E9460
S11309C0970420F0952311F00C9487040C948D0463
S11309D011240C94D2040E94AF0470F3959FC1F3C8
S11309E0950F50E0551F629FF001729FBB27F00DD9
S11309F0B11D639FAA27F00DB11DAA1F649F66272E
S1130A00B00DA11D661F829F2227B00DA11D621F7C
S1130A10739FB00DA11D621F839FA00D611D221F36
S1130A20749F3327A00D611D231F849F600D211D1A
S1130A30822F762F6A2F11249F5750409AF0F1F09D
S1130A4088234AF0EE0FFF1FBB1F661F771F881F06
S1130A5091505040A9F79E3F510580F00C948704B3
S1130A600C94D2045F3FE4F3983ED4F386957795D3
S1130A706795B795F795E7959F5FC1F7FE2B880FAC
S1130A80911D9695879597F90895A1E21A2EAA1BB0
S1130A90BB1BFD010DC0AA1FBB1FEE1FFF1FA2172A
S1130AA0B307E407F50720F0A21BB30BE40BF50B27
S1130AB0661F771F881F991F1A9469F760957095B0
S1130AC0809590959B01AC01BD01CF010895A29F33
S1130AD0B001B39FC001A39F700D811D1124911D0E
S1130AE0B29F700D811D1124911D0895AEE0B0E0F8
S1130AF0ECE7F5E00C9437080D891E8986E08C83B9
S1130B001A8309838FEF9FE79E838D83AE01475E2F
S1130B105F4F6F89788DCE0101960E949805EF8111
S1130B20F885E00FF11F10822E96E4E00C94530830
S1130B30ABE0B0E0EEE9F5E00C9429086C017B0130
S1130B408A01FC0117821682838181FFCCC1CE0108
S1130B5001963C01F6019381F70193FD859193FF82
S1130B6081917F01882309F4BAC1853239F493FD58
S1130B70859193FF81917F01853229F4B60190E03C
S1130B800E948F07E7CF912C212C312CFFE1F31524
S1130B90D8F08B3279F038F4803279F08332A1F4D2
S1130BA0232D20611DC08D3261F0803369F4232D23
S1130BB0216016C0832D8260382EE32DE4603E2E22
S1130BC02AC0F32DF8601DC037FC2DC020ED280F7E
S1130BD02A3040F08E32B9F436FC81C1232D2064D2
S1130BE0322E19C036FE06C08AE0989E200D1124CC
S1130BF0922E11C0EAE02E9E200D1124222EF32DF8
S1130C00F0623F2E08C08C3621F4832D8068382E84
S1130C1002C0883641F4F70193FD859193FF8191D9
S1130C207F018111B3CF982F9F7D9554933028F481
S1130C300C5F1F4F9FE399830DC0833631F08337D8
S1130C4071F0833509F059C021C0F801808189838E
S1130C500E5F1F4F88248394912C530113C02801E5
S1130C60F2E04F0E511CF801A080B18036FE03C0A3
S1130C70692D70E002C06FEF7FEFC5010E94840709
S1130C804C018201F32DFF773F2E16C0280122E08C
S1130C90420E511CF801A080B18036FE03C0692DBC
S1130CA070E002C06FEF7FEFC5010E9479074C012D
S1130CB0F32DF0683F2E820133FC1BC0822D90E09F
S1130CC088169906B0F4B60180E290E00E948F077E
S1130CD02A94F4CFF50137FC859137FE81915F01A9
S1130CE0B60190E00E948F0721102A9421E0821A15
S1130CF091088114910471F7E8C0843611F08936A3
S1130D0041F5F80137FE07C06081718182819381CA
S1130D100C5F1F4F08C060817181072E000C880B87
S1130D20990B0E5F1F4FF32DFF763F2E97FF09C0DF
S1130D3090958095709561957F4F8F4F9F4FF06888
S1130D403F2E2AE030E0A3010E94CB07882E8618AC
S1130D5045C0853731F4232D2F7EB22E2AE030E0B2
S1130D6025C0932D997FB92E8F36C1F018F488359C
S1130D7079F0B5C0803719F0883721F0B0C0E92F79
S1130D80E061BE2EB4FE0DC0FB2DF460BF2E09C081
S1130D9034FE0AC0292F2660B22E06C028E030E0B7
S1130DA005C020E130E002C020E132E0F801B7FEE6
S1130DB007C060817181828193810C5F1F4F06C0DF
S1130DC06081718180E090E00E5F1F4FA3010E945B
S1130DD0CB07882E8618FB2DFF773F2E36FE0DC0DD
S1130DE0232D2E7FA22E891458F434FE0BC032FC1E
S1130DF009C0832D8E7EA82E05C0B82CA32C03C059
S1130E00B82C01C0B92CA4FE0FC0FE01E80DF11DE1
S1130E108081803321F49A2D997EA92E09C0A2FEE7
S1130E2006C0B394B39404C08A2D867809F0B394B1
S1130E30A3FC11C0A0FE06C0B21488F4280C922CA6
S1130E409B180EC0B21460F4B60180E290E00E94D8
S1130E508F07B394F7CFB21418F42B1802C0982C50
S1130E60212CA4FE10C0B60180E390E00E948F07FD
S1130E70A2FE17C0A1FC03C088E790E002C088E589
S1130E8090E0B6010CC08A2D867859F0A1FE02C00C
S1130E908BE201C080E2A7FC8DE2B60190E00E94E3
S1130EA08F07891438F4B60180E390E00E948F071D
S1130EB09A94F7CF8A94F301E80DF11D8081B6016D
S1130EC090E00E948F078110F5CF222009F442CED2
S1130ED0B60180E290E00E948F072A94F6CFF601D3
S1130EE08681978102C08FEF9FEF2B96E2E10C94ED
S1130EF04508FC010590615070400110D8F78095B9
S1130F0090958E0F9F1F0895FC01615070400190D1
S1130F100110D8F7809590958E0F9F1F08950F9319
S1130F201F93CF93DF93FB01238121FD03C08FEF38
S1130F309FEF2CC022FF16C0468157812481358142
S1130F404217530744F4A081B1819D012F5F3F4FA5
S1130F50318320838C93268137812F5F3F4F3783E2
S1130F60268314C08B01EC01FB010084F185E02D84
S1130F700995892BE1F6D80116968D919C911797C6
S1130F80019617969C938E931697CE01DF91CF917D
S1130F901F910F910895FA01AA27283051F12031A9
S1130FA081F1E8946F936E7F6E5F7F4F8F4F9F4FF9
S1130FB0AF4FB1E03ED0B4E03CD0670F781F891F3B
S1130FC09A1FA11D680F791F8A1F911DA11D6A0F09
S1130FD0711D811D911DA11D20D009F468943F91BC
S1130FE02AE0269F11243019305D3193DEF6CF01BB
S1130FF00895462F4770405D4193B3E00FD0C9F781
S1131000F6CF462F4F70405D4A3318F0495D31FDED
S11310104052419302D0A9F7EACFB4E0A695979540
S1131020879577956795BA95C9F700976105710516
S113103008959B01AC010A2E069457954795379560
S11310402795BA95C9F7620F731F841F951FA01DBA
S113105008952F923F924F925F926F927F928F9258
S11310609F92AF92BF92CF92DF92EF92FF920F9333
S11310701F93CF93DF93CDB7DEB7CA1BDB0B0FB63D
S1131080F894DEBF0FBECDBF09942A8839884888FA
S11310905F846E847D848C849B84AA84B984C88490
S11310A0DF80EE80FD800C811B81AA81B981CE0F87
S11310B0D11D0FB6F894DEBF0FBECDBFED0108956C
S10710C0F894FFCFCE
S11310C4040A0A0A0E0E0E04253264274320200063
S11310D4443A00256420636D202000503A002564BE
S11110E42062706D20200025642564256400C0
S9030000FC
