:100000000C9434000C9451000C9451000C94510049
:100010000C9451000C9451000C9451000C9451001C
:100020000C9451000C9451000C9451000C9451000C
:100030000C9451000C9451000C9451000C945100FC
:100040000C9451000C9451000C9451000C945100EC
:100050000C9451000C9451000C9451000C945100DC
:100060000C949A000C94510011241FBECFEFD8E0DD
:10007000DEBFCDBF11E0A0E0B1E0ECE1FAE002C0EC
:1000800005900D92AE30B107D9F721E0AEE0B1E0B6
:1000900001C01D92A731B207E1F70E9475010C94CF
:1000A0000C050C9400008AB18E7F8AB98AB18260F7
:1000B0008AB9E0ECF0E01082808182608083E1EC1C
:1000C000F0E01082808188698083E2ECF0E01082A9
:1000D0008081866080838FEC90E09093C500809350
:1000E000C400089597B19F7C97B9880F8093BA0098
:1000F00085E48093BC00089583E884BD83E085BDDA
:1001000008951092800082E0809381001092850013
:100110001092840008952FE1AC01249FC001259F17
:10012000900D112467E970E00E94EB01862F609327
:10013000160108951F920F920FB60F9211242F935C
:100140003F934F935F936F937F938F939F93AF935F
:10015000BF93EF93FF938091B9008C7F8038C1F0FB
:1001600028F4803669F0803759F071C0883A09F474
:1001700046C0883B09F443C0803909F068C008C014
:1001800010920E01ECEBF0E080818068808364C007
:1001900080910E0181110CC08091BB0080930F01F2
:1001A00080910F01833529F581E080930E0121C0F4
:1001B0008130F9F48091BB00813359F488E790E0F5
:1001C0000E948B0087BD80E090E00E948B0088BD7C
:1001D0000EC08091BB00803351F480E090E00E941B
:1001E0008B0087BD88E790E00E948B0088BD10924D
:1001F0000E01ECEBF0E08081806880832DC080915F
:100200001001811109C08091110190911201909308
:10021000BB0081E08093100180911001813049F48E
:1002200080911101909112018093BB0082E0809334
:10023000100180911001823031F48091150180937A
:10024000BB001092100185EC8093BC0005C0ECEB64
:10025000F0E0808180698083FF91EF91BF91AF9141
:100260009F918F917F916F915F914F913F912F91CE
:100270000F900FBE0F901F90189585B18F7D85B997
:100280008AE08A95F1F700C085B1806285B985E37F
:100290008A95F1F7000085B18F7D85B94A9BFECF25
:1002A00010928500109284004A99FECF80918400BC
:1002B0009091850090931401809313012091130174
:1002C00030911401AFE9B6E40E94FF01969587953D
:1002D000929582958F7089279F708927909312013C
:1002E00080931101109210010895CF93DF93CDB741
:1002F000DEB760970FB6F894DEBF0FBECDBFF8949F
:1003000084B1806284B98AB180648AB98AB180621A
:100310008AB984B1806184B98AB18B7F8AB90E941D
:1003200081000E947C0080E10E9472000E945300C4
:10033000789480E090E00E948B0087BD88E790E091
:100340000E948B0088BD0E943D012FEF8DEE92E050
:10035000215080409040E1F700C0000080911101E1
:1003600090911201883088F485B1806185B988E761
:1003700090E00E948B0087BD80E090E00E948B009F
:1003800088BD81E0809315010FC085B18F7E85B94E
:1003900080E090E00E948B0087BD88E790E00E949B
:1003A0008B0088BD1092150180911101909112016E
:1003B0009F938F9380E091E09F938F93CE0101965E
:1003C0009F938F930E9422020F900F900F900F9097
:1003D0000F900F90B8CF97FB072E16F4009407D01C
:1003E00077FD09D00E940E0207FC05D03EF49095DF
:1003F00081959F4F0895709561957F4F0895A29FB5
:10040000B001B39FC001A39F700D811D1124911DE8
:10041000B29F700D811D1124911D0895AA1BBB1B55
:1004200051E107C0AA1FBB1FA617B70710F0A61BF4
:10043000B70B881F991F5A95A9F780959095BC0115
:10044000CD010895AEE0B0E0E8E2F2E00C94E30400
:100450000D891E8986E08C831A8309838FEF9FE7BD
:100460009E838D83AE01475E5F4F6F89788DCE018D
:1004700001960E944402EF81F885E00FF11F10827F
:100480002E96E4E00C94FF04ABE0B0E0EAE4F2E086
:100490000C94D5046C017B018A01FC011782168241
:1004A000838181FFCCC1CE0101963C01F60193818D
:1004B000F70193FD859193FF81917F01882309F4D2
:1004C000BAC1853239F493FD859193FF81917F0103
:1004D000853229F4B60190E00E943B04E7CF912CCD
:1004E000212C312CFFE1F315D8F08B3279F038F460
:1004F000803279F08332A1F4232D20611DC08D322A
:1005000061F0803369F4232D216016C0832D826051
:10051000382EE32DE4603E2E2AC0F32DF8601DC076
:1005200037FC2DC020ED280F2A3040F08E32B9F470
:1005300036FC81C1232D2064322E19C036FE06C040
:100540008AE0989E200D1124922E11C0EAE02E9E82
:10055000200D1124222EF32DF0623F2E08C08C3680
:1005600021F4832D8068382E02C0883641F4F701CB
:1005700093FD859193FF81917F018111B3CF982FD6
:100580009F7D9554933028F40C5F1F4F9FE3998310
:100590000DC0833631F0833771F0833509F059C0CF
:1005A00021C0F801808189830E5F1F4F88248394C6
:1005B000912C530113C02801F2E04F0E511CF80199
:1005C000A080B18036FE03C0692D70E002C06FEFDD
:1005D0007FEFC5010E9430044C018201F32DFF77AB
:1005E0003F2E16C0280122E0420E511CF801A080C7
:1005F000B18036FE03C0692D70E002C06FEF7FEF5F
:10060000C5010E9425044C01F32DF0683F2E8201A4
:1006100033FC1BC0822D90E088169906B0F4B60119
:1006200080E290E00E943B042A94F4CFF50137FC6D
:10063000859137FE81915F01B60190E00E943B04F5
:1006400021102A9421E0821A91088114910471F7F3
:10065000E8C0843611F0893641F5F80137FE07C04D
:1006600060817181828193810C5F1F4F08C060811E
:100670007181072E000C880B990B0E5F1F4FF32D15
:10068000FF763F2E97FF09C09095809570956195F4
:100690007F4F8F4F9F4FF0683F2E2AE030E0A3013D
:1006A0000E947704882E861845C0853731F4232DA3
:1006B0002F7EB22E2AE030E025C0932D997FB92EEF
:1006C0008F36C1F018F4883579F0B5C0803719F04D
:1006D000883721F0B0C0E92FE061BE2EB4FE0DC016
:1006E000FB2DF460BF2E09C034FE0AC0292F2660FE
:1006F000B22E06C028E030E005C020E130E002C0A4
:1007000020E132E0F801B7FE07C06081718182818B
:1007100093810C5F1F4F06C06081718180E090E083
:100720000E5F1F4FA3010E947704882E8618FB2DB1
:10073000FF773F2E36FE0DC0232D2E7FA22E89146B
:1007400058F434FE0BC032FC09C0832D8E7EA82ED7
:1007500005C0B82CA32C03C0B82C01C0B92CA4FE32
:100760000FC0FE01E80DF11D8081803321F49A2D28
:10077000997EA92E09C0A2FE06C0B394B39404C00A
:100780008A2D867809F0B394A3FC11C0A0FE06C0A0
:10079000B21488F4280C922C9B180EC0B21460F48A
:1007A000B60180E290E00E943B04B394F7CFB2140C
:1007B00018F42B1802C0982C212CA4FE10C0B601EE
:1007C00080E390E00E943B04A2FE17C0A1FC03C09E
:1007D00088E790E002C088E590E0B6010CC08A2D61
:1007E000867859F0A1FE02C08BE201C080E2A7FC2E
:1007F0008DE2B60190E00E943B04891438F4B60102
:1008000080E390E00E943B049A94F7CF8A94F3012E
:10081000E80DF11D8081B60190E00E943B0481103B
:10082000F5CF222009F442CEB60180E290E00E948A
:100830003B042A94F6CFF6018681978102C08FEFA0
:100840009FEF2B96E2E10C94F104FC0105906150BE
:1008500070400110D8F7809590958E0F9F1F0895D6
:10086000FC016150704001900110D8F7809590957F
:100870008E0F9F1F08950F931F93CF93DF93FB015C
:10088000238121FD03C08FEF9FEF2CC022FF16C0F4
:1008900046815781248135814217530744F4A08152
:1008A000B1819D012F5F3F4F318320838C9326813F
:1008B00037812F5F3F4F3783268314C08B01EC01B4
:1008C000FB010084F185E02D0995892BE1F6D80123
:1008D00016968D919C911797019617969C938E93DF
:1008E0001697CE01DF91CF911F910F910895FA01D4
:1008F000AA27283051F1203181F1E8946F936E7F5F
:100900006E5F7F4F8F4F9F4FAF4FB1E03ED0B4E04F
:100910003CD0670F781F891F9A1FA11D680F791F90
:100920008A1F911DA11D6A0F711D811D911DA11DA1
:1009300020D009F468943F912AE0269F11243019B1
:10094000305D3193DEF6CF010895462F4770405D4C
:100950004193B3E00FD0C9F7F6CF462F4F70405DFB
:100960004A3318F0495D31FD4052419302D0A9F756
:10097000EACFB4E0A6959795879577956795BA9550
:10098000C9F700976105710508959B01AC010A2E16
:1009900006945795479537952795BA95C9F7620FED
:1009A000731F841F951FA01D08952F923F924F9291
:1009B0005F926F927F928F929F92AF92BF92CF92EF
:1009C000DF92EF92FF920F931F93CF93DF93CDB7F8
:1009D000DEB7CA1BDB0B0FB6F894DEBF0FBECDBF70
:1009E00009942A88398848885F846E847D848C8441
:1009F0009B84AA84B984C884DF80EE80FD800C814A
:100A00001B81AA81B981CE0FD11D0FB6F894DEBF2C
:0C0A10000FBECDBFED010895F894FFCF9C
:0E0A1C00446973743A20256420636D0A00005B
:00000001FF
